{
  "contractName": "EventContract",
  "abi": [
    {
      "constant": true,
      "inputs": [],
      "name": "numberDonator",
      "outputs": [
        {
          "name": "",
          "type": "uint256"
        }
      ],
      "payable": false,
      "stateMutability": "view",
      "type": "function"
    },
    {
      "constant": true,
      "inputs": [],
      "name": "totalDonat",
      "outputs": [
        {
          "name": "",
          "type": "uint256"
        }
      ],
      "payable": false,
      "stateMutability": "view",
      "type": "function"
    },
    {
      "constant": true,
      "inputs": [],
      "name": "amountAvailable",
      "outputs": [
        {
          "name": "",
          "type": "uint256"
        }
      ],
      "payable": false,
      "stateMutability": "view",
      "type": "function"
    },
    {
      "constant": true,
      "inputs": [],
      "name": "owner",
      "outputs": [
        {
          "name": "",
          "type": "address"
        }
      ],
      "payable": false,
      "stateMutability": "view",
      "type": "function"
    },
    {
      "constant": true,
      "inputs": [],
      "name": "numberEndComfirm",
      "outputs": [
        {
          "name": "",
          "type": "uint256"
        }
      ],
      "payable": false,
      "stateMutability": "view",
      "type": "function"
    },
    {
      "constant": true,
      "inputs": [],
      "name": "end",
      "outputs": [
        {
          "name": "",
          "type": "bool"
        }
      ],
      "payable": false,
      "stateMutability": "view",
      "type": "function"
    },
    {
      "inputs": [],
      "payable": false,
      "stateMutability": "nonpayable",
      "type": "constructor"
    },
    {
      "constant": false,
      "inputs": [
        {
          "name": "_activities_data",
          "type": "string"
        }
      ],
      "name": "addActivites",
      "outputs": [],
      "payable": false,
      "stateMutability": "nonpayable",
      "type": "function"
    },
    {
      "constant": false,
      "inputs": [
        {
          "name": "_amount",
          "type": "uint256"
        }
      ],
      "name": "donate",
      "outputs": [],
      "payable": true,
      "stateMutability": "payable",
      "type": "function"
    },
    {
      "constant": false,
      "inputs": [
        {
          "name": "_activity",
          "type": "uint256"
        }
      ],
      "name": "validActivity",
      "outputs": [],
      "payable": false,
      "stateMutability": "nonpayable",
      "type": "function"
    },
    {
      "constant": false,
      "inputs": [],
      "name": "confirmEndEvent",
      "outputs": [],
      "payable": false,
      "stateMutability": "nonpayable",
      "type": "function"
    },
    {
      "constant": false,
      "inputs": [
        {
          "name": "_activity",
          "type": "uint256"
        }
      ],
      "name": "ownerDrawFundFirstTime",
      "outputs": [],
      "payable": false,
      "stateMutability": "nonpayable",
      "type": "function"
    },
    {
      "constant": false,
      "inputs": [
        {
          "name": "_activity",
          "type": "uint256"
        }
      ],
      "name": "ownerDrawFundSecondTime",
      "outputs": [],
      "payable": false,
      "stateMutability": "nonpayable",
      "type": "function"
    }
  ],
  "bytecode": "0x608060405234801561001057600080fd5b50336000806101000a81548173ffffffffffffffffffffffffffffffffffffffff021916908373ffffffffffffffffffffffffffffffffffffffff160217905550600060048190555060006001819055506000600360006101000a81548160ff0219169083151502179055506113c38061008b6000396000f3006080604052600436106100ba576000357c0100000000000000000000000000000000000000000000000000000000900463ffffffff16806303650701146100bf5780631ddd738a146100ea578063244d2733146101175780633c799547146101425780636048249b1461016d5780636cadd9de1461019a578063810b52ce146101c75780638da5cb5b146101de578063b0d644bf14610235578063c86d58551461029e578063efbe1c1c146102c9578063f14faf6f146102f8575b600080fd5b3480156100cb57600080fd5b506100d4610318565b6040518082815260200191505060405180910390f35b3480156100f657600080fd5b506101156004803603810190808035906020019092919050505061031e565b005b34801561012357600080fd5b5061012c6103f8565b6040518082815260200191505060405180910390f35b34801561014e57600080fd5b506101576103fe565b6040518082815260200191505060405180910390f35b34801561017957600080fd5b5061019860048036038101908080359060200190929190505050610404565b005b3480156101a657600080fd5b506101c5600480360381019080803590602001909291905050506104f6565b005b3480156101d357600080fd5b506101dc61056c565b005b3480156101ea57600080fd5b506101f36106e2565b604051808273ffffffffffffffffffffffffffffffffffffffff1673ffffffffffffffffffffffffffffffffffffffff16815260200191505060405180910390f35b34801561024157600080fd5b5061029c600480360381019080803590602001908201803590602001908080601f0160208091040260200160405190810160405280939291908181526020018383808284378201915050505050509192919290505050610707565b005b3480156102aa57600080fd5b506102b3610d54565b6040518082815260200191505060405180910390f35b3480156102d557600080fd5b506102de610d5a565b604051808215151515815260200191505060405180910390f35b61031660048036038101908080359060200190929190505050610d6d565b005b60045481565b6000600260045481151561032e57fe5b04600960008481526020019081526020016000206002015411151561035257600080fd5b60096000838152602001908152602001600020600101549050806002541015151561037c57600080fd5b806002600082825403925050819055506000809054906101000a900473ffffffffffffffffffffffffffffffffffffffff1673ffffffffffffffffffffffffffffffffffffffff166108fc829081150290604051600060405180830381858888f193505050501580156103f3573d6000803e3d6000fd5b505050565b60015481565b60025481565b6000600260045481151561041457fe5b04600960008481526020019081526020016000206002015411151561043857600080fd5b60096000838152602001908152602001600020600101546009600084815260200190815260200160002060000154039050806002541015151561047a57600080fd5b806002600082825403925050819055506000809054906101000a900473ffffffffffffffffffffffffffffffffffffffff1673ffffffffffffffffffffffffffffffffffffffff166108fc829081150290604051600060405180830381858888f193505050501580156104f1573d6000803e3d6000fd5b505050565b6000600660003373ffffffffffffffffffffffffffffffffffffffff1673ffffffffffffffffffffffffffffffffffffffff1681526020019081526020016000205411151561054457600080fd5b6001600960008381526020019081526020016000206002016000828254019250508190555050565b6000600660003373ffffffffffffffffffffffffffffffffffffffff1673ffffffffffffffffffffffffffffffffffffffff168152602001908152602001600020541115156105ba57600080fd5b60011515600360009054906101000a900460ff1615151415156105dc57600080fd5b60001515600760003373ffffffffffffffffffffffffffffffffffffffff1673ffffffffffffffffffffffffffffffffffffffff16815260200190815260200160002060009054906101000a900460ff16151514151561063b57600080fd5b6001600760003373ffffffffffffffffffffffffffffffffffffffff1673ffffffffffffffffffffffffffffffffffffffff16815260200190815260200160002060006101000a81548160ff021916908315150217905550600160056000828254019250508190555060026004548115156106b257fe5b0460055411156106e0576001600360006101000a81548160ff0219169083151502179055506106df610e74565b5b565b6000809054906101000a900473ffffffffffffffffffffffffffffffffffffffff1681565b60606000606060006107176112c9565b61075f6040805190810160405280600181526020017f230000000000000000000000000000000000000000000000000000000000000081525087610fb990919063ffffffff16565b805480602002602001604051908101604052809291908181526020016000905b8282101561083b578382906000526020600020018054600181600116156101000203166002900480601f0160208091040260200160405190810160405280929190818152602001828054600181600116156101000203166002900480156108275780601f106107fc57610100808354040283529160200191610827565b820191906000526020600020905b81548152906001019060200180831161080a57829003601f168201915b50505050508152602001906001019061077f565b505050509450600093505b8451841015610d4c576108896020604051908101604052806000815250868681518110151561087157fe5b90602001906020020151610fb990919063ffffffff16565b805480602002602001604051908101604052809291908181526020016000905b82821015610965578382906000526020600020018054600181600116156101000203166002900480601f0160208091040260200160405190810160405280929190818152602001828054600181600116156101000203166002900480156109515780601f1061092657610100808354040283529160200191610951565b820191906000526020600020905b81548152906001019060200180831161093457829003601f168201915b5050505050815260200190600101906108a9565b505050509250600091505b8251821015610d3f5773__Integers______________________________6342346c5e8460018151811015156109a257fe5b906020019060200201516040518263ffffffff167c01000000000000000000000000000000000000000000000000000000000281526004018080602001828103825283818151815260200191508051906020019080838360005b83811015610a175780820151818401526020810190506109fc565b50505050905090810190601f168015610a445780820380516001836020036101000a031916815260200191505b509250505060206040518083038186803b158015610a6157600080fd5b505af4158015610a75573d6000803e3d6000fd5b505050506040513d6020811015610a8b57600080fd5b810190808051906020019092919050505081600001818152505073__Integers______________________________6342346c5e846002815181101515610ace57fe5b906020019060200201516040518263ffffffff167c01000000000000000000000000000000000000000000000000000000000281526004018080602001828103825283818151815260200191508051906020019080838360005b83811015610b43578082015181840152602081019050610b28565b50505050905090810190601f168015610b705780820380516001836020036101000a031916815260200191505b509250505060206040518083038186803b158015610b8d57600080fd5b505af4158015610ba1573d6000803e3d6000fd5b505050506040513d6020811015610bb757600080fd5b8101908080519060200190929190505050816020018181525050806009600073__Integers______________________________6342346c5e876000815181101515610bff57fe5b906020019060200201516040518263ffffffff167c01000000000000000000000000000000000000000000000000000000000281526004018080602001828103825283818151815260200191508051906020019080838360005b83811015610c74578082015181840152602081019050610c59565b50505050905090810190601f168015610ca15780820380516001836020036101000a031916815260200191505b509250505060206040518083038186803b158015610cbe57600080fd5b505af4158015610cd2573d6000803e3d6000fd5b505050506040513d6020811015610ce857600080fd5b81019080805190602001909291905050508152602001908152602001600020600082015181600001556020820151816001015560408201518160020155606082015181600301559050508380600101945050610970565b8380600101945050610846565b505050505050565b60055481565b600360009054906101000a900460ff1681565b600081111515610d7c57600080fd5b803373ffffffffffffffffffffffffffffffffffffffff1631111515610da157600080fd5b3481141515610daf57600080fd5b600160046000828254019250508190555034600660003373ffffffffffffffffffffffffffffffffffffffff1673ffffffffffffffffffffffffffffffffffffffff168152602001908152602001600020600082825401925050819055503360086000600454815260200190815260200160002060006101000a81548173ffffffffffffffffffffffffffffffffffffffff021916908373ffffffffffffffffffffffffffffffffffffffff1602179055503460016000828254019250508190555050565b60008060011515600360009054906101000a900460ff161515141515610e9957600080fd5b600091505b600454821015610fb557600660006008600085815260200190815260200160002060009054906101000a900473ffffffffffffffffffffffffffffffffffffffff1673ffffffffffffffffffffffffffffffffffffffff1673ffffffffffffffffffffffffffffffffffffffff16815260200190815260200160002054600154600254811515610f2a57fe5b040290506008600083815260200190815260200160002060009054906101000a900473ffffffffffffffffffffffffffffffffffffffff1673ffffffffffffffffffffffffffffffffffffffff166108fc829081150290604051600060405180830381858888f19350505050158015610fa7573d6000803e3d6000fd5b508180600101925050610e9e565b5050565b60006060600080606080600080899650600095505b600187510386101561115257610fe58a8a88611162565b94507fffffffffffffffffffffffffffffffffffffffffffffffffffffffffffffffff85141561101457865194505b8585036040519080825280601f01601f1916602001820160405280156110495781602001602082028038833980820191505090505b509350839250600091508590505b8481101561110957868181518110151561106d57fe5b9060200101517f010000000000000000000000000000000000000000000000000000000000000090047f01000000000000000000000000000000000000000000000000000000000000000283838060010194508151811015156110cc57fe5b9060200101907effffffffffffffffffffffffffffffffffffffffffffffffffffffffffffff1916908160001a9053508080600101915050611057565b6001850195508783908060018154018082558091505090600182039060005260206000200160009091929091909150908051906020019061114b9291906112f2565b5050610fce565b8797505050505050505092915050565b600060608060008692508591506001825114151561117c57fe5b8490505b825181101561129b5781600081518110151561119857fe5b9060200101517f010000000000000000000000000000000000000000000000000000000000000090047f0100000000000000000000000000000000000000000000000000000000000000027effffffffffffffffffffffffffffffffffffffffffffffffffffffffffffff1916838281518110151561121357fe5b9060200101517f010000000000000000000000000000000000000000000000000000000000000090047f0100000000000000000000000000000000000000000000000000000000000000027effffffffffffffffffffffffffffffffffffffffffffffffffffffffffffff1916141561128e578093506112bf565b8080600101915050611180565b7fffffffffffffffffffffffffffffffffffffffffffffffffffffffffffffffff93505b5050509392505050565b608060405190810160405280600081526020016000815260200160008152602001600081525090565b828054600181600116156101000203166002900490600052602060002090601f016020900481019282601f1061133357805160ff1916838001178555611361565b82800160010185558215611361579182015b82811115611360578251825591602001919060010190611345565b5b50905061136e9190611372565b5090565b61139491905b80821115611390576000816000905550600101611378565b5090565b905600a165627a7a7230582051dfce014e41ce6ad7c350eca5afad1ef4814a8916aef5ff90105b6478d4c1da0029",
  "source": "pragma solidity ^0.4.24;\nimport \"./Strings.sol\";\nimport \"./Integers.sol\";\n\n\ncontract EventContract {\n    using Strings for string;\n    using Integers for uint;\n    \n    address public owner;\n    uint public totalDonat;\n    uint public amountAvailable;\n    bool public end;\n    uint public numberDonator;\n    uint public numberEndComfirm;\n    \n    struct Activity {\n        uint budget;\n        uint advance;\n        uint validNumber;\n        uint numberPaid;\n    }\n    \n    modifier isDonator() {\n        require(donators[msg.sender] > 0);\n        _;\n    }\n    \n    modifier isEnd() {\n        require(end == true);\n        _;\n    }\n    \n    modifier isNotEnd() {\n        require(end == true);\n        _;\n    }\n    \n    mapping(address => uint) donators;\n    mapping(address => bool) donatorsComfirmEnd;\n    mapping(uint => address) donatorsIndex;\n\n    mapping(uint => Activity) activities;\n    \n    constructor() public {\n        owner = msg.sender;\n        numberDonator = 0;\n        totalDonat = 0;\n        end = false;\n    }\n    \n    function addActivites(string _activities_data) public{\n        string[] memory activities_ = _activities_data.split(\"#\");\n        \n        for(uint i = 0; i < activities_.length; i++) {\n             string[] memory activityInfo = activities_[i].split(\"\");\n             \n             for(uint j = 0; j < activityInfo.length ; i++){\n                 Activity memory activity;\n                 activity.budget = Integers.parseInt(activityInfo[1]);\n                 activity.advance = Integers.parseInt(activityInfo[2]);\n                 activities[Integers.parseInt(activityInfo[0])] = activity;\n             }\n        }\n    }\n    \n    function donate(uint _amount) public payable{\n        require(_amount > 0);\n        require(msg.sender.balance > _amount );\n        require(_amount == msg.value);\n        numberDonator += 1;\n        donators[msg.sender] += msg.value;\n        donatorsIndex[numberDonator] = msg.sender;\n        totalDonat += msg.value;\n    }\n    \n    function validActivity(uint _activity) public isDonator{\n        activities[_activity].validNumber += 1;\n    }\n    \n    function confirmEndEvent() public isDonator isNotEnd{\n        require(donatorsComfirmEnd[msg.sender]==false);\n        donatorsComfirmEnd[msg.sender] = true;\n        numberEndComfirm += 1;\n        if(numberEndComfirm > (numberDonator/2)){\n            end = true;\n            refund();\n        }\n    }\n    \n    \n    function refund() private isEnd{\n        for (uint i=0;i<numberDonator;i++) {\n             uint amount = (amountAvailable/totalDonat) * donators[donatorsIndex[i]];\n             donatorsIndex[i].transfer(amount);\n        }\n    }\n    \n    function ownerDrawFundFirstTime(uint _activity) public{\n        require(activities[_activity].validNumber > numberDonator/2);\n        uint amount = activities[_activity].advance;\n        require(amountAvailable >= amount );\n        amountAvailable -= amount;\n        owner.transfer(amount);\n    }\n    \n      \n    function ownerDrawFundSecondTime(uint _activity) public{\n        require(activities[_activity].validNumber > numberDonator/2);\n        uint amount = activities[_activity].budget - activities[_activity].advance;\n        require(amountAvailable >= amount );\n        amountAvailable -= amount;\n        owner.transfer(amount);\n    }\n    \n}",
  "sourcePath": "/home/tailouis/project/donation/dappthon-donation/contracts/EventContract.sol",
  "compiler": {
    "name": "solc",
    "version": "0.4.24+commit.e67f0147.Emscripten.clang"
  },
  "schemaVersion": "2.0.1",
  "updatedAt": "2018-09-30T01:22:40.264Z"
}