{
  "contractName": "Integers",
  "abi": [
    {
      "constant": false,
      "inputs": [
        {
          "name": "_value",
          "type": "string"
        }
      ],
      "name": "parseInt",
      "outputs": [
        {
          "name": "_ret",
          "type": "uint256"
        }
      ],
      "payable": false,
      "stateMutability": "nonpayable",
      "type": "function"
    },
    {
      "constant": false,
      "inputs": [
        {
          "name": "_base",
          "type": "uint8"
        }
      ],
      "name": "toByte",
      "outputs": [
        {
          "name": "_ret",
          "type": "bytes1"
        }
      ],
      "payable": false,
      "stateMutability": "nonpayable",
      "type": "function"
    }
  ],
  "bytecode": "0x6103cb610030600b82828239805160001a6073146000811461002057610022565bfe5b5030600052607381538281f3007300000000000000000000000000000000000000003014608060405260043610610063576000357c0100000000000000000000000000000000000000000000000000000000900463ffffffff16806342346c5e14610068578063a86b73f0146100e5575b600080fd5b81801561007457600080fd5b506100cf600480360381019080803590602001908201803590602001908080601f016020809104026020016040519081016040528093929190818152602001838380828437820191505050505050919291929050505061016d565b6040518082815260200191505060405180910390f35b8180156100f157600080fd5b50610113600480360381019080803560ff16906020019092919050505061038c565b60405180827effffffffffffffffffffffffffffffffffffffffffffffffffffffffffffff19167effffffffffffffffffffffffffffffffffffffffffffffffffffffffffffff1916815260200191505060405180910390f35b6000606060008084925060019150600183510390505b600081101580156101945750825181105b156103845760307f01000000000000000000000000000000000000000000000000000000000000000283828151811015156101cb57fe5b9060200101517f010000000000000000000000000000000000000000000000000000000000000090047f0100000000000000000000000000000000000000000000000000000000000000027effffffffffffffffffffffffffffffffffffffffffffffffffffffffffffff1916101580156102e3575060397f010000000000000000000000000000000000000000000000000000000000000002838281518110151561027357fe5b9060200101517f010000000000000000000000000000000000000000000000000000000000000090047f0100000000000000000000000000000000000000000000000000000000000000027effffffffffffffffffffffffffffffffffffffffffffffffffffffffffffff191611155b15156102eb57fe5b81603084838151811015156102fc57fe5b9060200101517f010000000000000000000000000000000000000000000000000000000000000090047f0100000000000000000000000000000000000000000000000000000000000000027f01000000000000000000000000000000000000000000000000000000000000009004030284019350600a82029150808060019003915050610183565b505050919050565b60006001590182815380519150509190505600a165627a7a72305820a494cf3423d400277a673dc4e41087e6576060da1f5bd24859000d86c7bc32d70029",
  "source": "pragma solidity ^0.4.24;\n\n/**\n * Integers Library\n * \n * In summary this is a simple library of integer functions which allow a simple\n * conversion to and from strings\n * \n * @author James Lockhart <james@n3tw0rk.co.uk>\n */\nlibrary Integers {\n    /**\n     * Parse Int\n     * \n     * Converts an ASCII string value into an uint as long as the string \n     * its self is a valid unsigned integer\n     * \n     * @param _value The ASCII string to be converted to an unsigned integer\n     * @return uint The unsigned value of the ASCII string\n     */\n    function parseInt(string _value) \n        public\n        returns (uint _ret) {\n        bytes memory _bytesValue = bytes(_value);\n        uint j = 1;\n        for(uint i = _bytesValue.length-1; i >= 0 && i < _bytesValue.length; i--) {\n            assert(_bytesValue[i] >= 48 && _bytesValue[i] <= 57);\n            _ret += (uint(_bytesValue[i]) - 48)*j;\n            j*=10;\n        }\n    }\n    \n    /**\n     * To String\n     * \n     * Converts an unsigned integer to the ASCII string equivalent value\n     * \n     * @param _base The unsigned integer to be converted to a string\n     * @return string The resulting ASCII string value\n     */\n    function toString(uint _base) \n        internal\n        returns (string) {\n        bytes memory _tmp = new bytes(32);\n        uint i;\n        for(i = 0;_base > 0;i++) {\n            _tmp[i] = byte((_base % 10) + 48);\n            _base /= 10;\n        }\n        bytes memory _real = new bytes(i--);\n        for(uint j = 0; j < _real.length; j++) {\n            _real[j] = _tmp[i--];\n        }\n        return string(_real);\n    }\n\n    /**\n     * To Byte\n     *\n     * Convert an 8 bit unsigned integer to a byte\n     *\n     * @param _base The 8 bit unsigned integer\n     * @return byte The byte equivalent\n     */\n    function toByte(uint8 _base) \n        public\n        returns (byte _ret) {\n        assembly {\n            let m_alloc := add(msize(),0x1)\n            mstore8(m_alloc, _base)\n            _ret := mload(m_alloc)\n        }\n    }\n\n    /**\n     * To Bytes\n     *\n     * Converts an unsigned integer to bytes\n     *\n     * @param _base The integer to be converted to bytes\n     * @return bytes The bytes equivalent \n     */\n    function toBytes(uint _base) \n        internal\n        returns (bytes _ret) {\n        assembly {\n            let m_alloc := add(msize(),0x1)\n            _ret := mload(m_alloc)\n            mstore(_ret, 0x20)\n            mstore(add(_ret, 0x20), _base)\n        }\n    }\n}\n",
  "sourcePath": "/home/tailouis/project/donation/dappthon-donation/contracts/Integers.sol",
  "compiler": {
    "name": "solc",
    "version": "0.4.24+commit.e67f0147.Emscripten.clang"
  },
  "schemaVersion": "2.0.1",
  "updatedAt": "2018-09-30T01:22:40.269Z"
}